{
  "transactions": [
    {
      "hash": "0xbd6831bfa5c52aa2cda93773814a5d23aca925fa90b03f6ddf71c30e1d5b973a",
      "transactionType": "CALL",
      "contractName": null,
      "contractAddress": "0x54ec23cbce1a9d33f05c4d3d79ec28aff3c8ce8d",
      "function": "transact(bytes,bytes)",
      "arguments": [
        "0x00000000000000000000000000000000000000000000000000000000000000205893afe12b44b83642f323c50a00281172b1b9a37169b61fb28807883f13522e000000000000000000000000000000000000000000000000000000000000008000000000000000000000000000000000000000000000000000000000000000c056d70211580649764eb11b95757ab4a699d54531e46a4d3889c8a8d2ba3dd2b70000000000000000000000000000000000000000000000000000000000000001fec2eb7d11705720b7dc513aed5232a2a4cfa7981749f1656be91e3226c99a190000000000000000000000000000000000000000000000000000000000000001bf1e21c99a36e5265342b45b3748ba4486378a734a8650d0e72ece0d433d3497",
        "0x1234"
      ],
      "transaction": {
        "from": "0x15398447bff13c17a8b41b941730291013703530",
        "to": "0x54ec23cbce1a9d33f05c4d3d79ec28aff3c8ce8d",
        "gas": "0x346ee2e4",
        "value": "0x0",
        "input": "0x82b963cf00000000000000000000000000000000000000000000000000000000000000400000000000000000000000000000000000000000000000000000000000000180000000000000000000000000000000000000000000000000000000000000012000000000000000000000000000000000000000000000000000000000000000205893afe12b44b83642f323c50a00281172b1b9a37169b61fb28807883f13522e000000000000000000000000000000000000000000000000000000000000008000000000000000000000000000000000000000000000000000000000000000c056d70211580649764eb11b95757ab4a699d54531e46a4d3889c8a8d2ba3dd2b70000000000000000000000000000000000000000000000000000000000000001fec2eb7d11705720b7dc513aed5232a2a4cfa7981749f1656be91e3226c99a190000000000000000000000000000000000000000000000000000000000000001bf1e21c99a36e5265342b45b3748ba4486378a734a8650d0e72ece0d433d349700000000000000000000000000000000000000000000000000000000000000021234000000000000000000000000000000000000000000000000000000000000",
        "nonce": "0x2",
        "chainId": "0x138b"
      },
      "additionalContracts": [],
      "isFixedGasLimit": false
    },
    {
      "hash": "0x332fabb2e79fae2295f52f9a8cb8b1fdaa33f906d9cb912b694ab22fbb50756e",
      "transactionType": "CALL",
      "contractName": null,
      "contractAddress": "0x54ec23cbce1a9d33f05c4d3d79ec28aff3c8ce8d",
      "function": "executeSwap(bytes,bytes)",
      "arguments": [
        "0x0000000000000000000000000000000000000000000000000000000000000020f0a3d6a78a0b9ceeac025ffe83bfe347f4b6875f3415ef8d546cd6c3a5775fe200000000000000000000000000000000000000000000000000000000000000a00000000000000000000000000000000000000000000000000000000000000100ec7e4e6ad91bd2e31a053b2e46f92e838b84b238f833212fa2a383e861479a10e55b9bd437084abbce9d6be2b64ee0321ab2c7ff88ba6778d6251a3a5ecdfb08000000000000000000000000000000000000000000000000000000000000000231242d64bcd81a90cf80bc8521890cdd3bd10b851b586684181e5c43204f6dbb95047e12713b2523076fd6341cf49a2fcc0c5a0540ac676413f6474eaf0bd2320000000000000000000000000000000000000000000000000000000000000002c6a7e9c4345acce91a14161c83957f54e4ea0fb5d992aab455af090224c87e69a4201f02e5c941b1bcab9876cba73ce219f6af8b6a89e3f430aa0d5868b3e43b",
        "0x1234"
      ],
      "transaction": {
        "from": "0x15398447bff13c17a8b41b941730291013703530",
        "to": "0x54ec23cbce1a9d33f05c4d3d79ec28aff3c8ce8d",
        "gas": "0x4f4c174c",
        "value": "0x0",
        "input": "0xb7045da1000000000000000000000000000000000000000000000000000000000000004000000000000000000000000000000000000000000000000000000000000001e000000000000000000000000000000000000000000000000000000000000001800000000000000000000000000000000000000000000000000000000000000020f0a3d6a78a0b9ceeac025ffe83bfe347f4b6875f3415ef8d546cd6c3a5775fe200000000000000000000000000000000000000000000000000000000000000a00000000000000000000000000000000000000000000000000000000000000100ec7e4e6ad91bd2e31a053b2e46f92e838b84b238f833212fa2a383e861479a10e55b9bd437084abbce9d6be2b64ee0321ab2c7ff88ba6778d6251a3a5ecdfb08000000000000000000000000000000000000000000000000000000000000000231242d64bcd81a90cf80bc8521890cdd3bd10b851b586684181e5c43204f6dbb95047e12713b2523076fd6341cf49a2fcc0c5a0540ac676413f6474eaf0bd2320000000000000000000000000000000000000000000000000000000000000002c6a7e9c4345acce91a14161c83957f54e4ea0fb5d992aab455af090224c87e69a4201f02e5c941b1bcab9876cba73ce219f6af8b6a89e3f430aa0d5868b3e43b00000000000000000000000000000000000000000000000000000000000000021234000000000000000000000000000000000000000000000000000000000000",
        "nonce": "0x3",
        "chainId": "0x138b"
      },
      "additionalContracts": [],
      "isFixedGasLimit": false
    }
  ],
  "receipts": [
    {
      "status": "0x1",
      "cumulativeGasUsed": "0x219b2df3",
      "logs": [
        {
          "address": "0x54ec23cbce1a9d33f05c4d3d79ec28aff3c8ce8d",
          "topics": [
            "0xcb85226de2042775fc20e22e066e05653c16eb1e57d21eae020ac6d9f9a54804"
          ],
          "data": "0xbf1e21c99a36e5265342b45b3748ba4486378a734a8650d0e72ece0d433d349700000000000000000000000000000000000000000000000000000000000000400000000000000000000000000000000000000000000000000000000000000000",
          "blockHash": "0x02660eea71fa65a9c2bc310be548d26545a42a5b00e940e63e50ee5310941b78",
          "blockNumber": "0x1f2eacb",
          "blockTimestamp": "0x69515877",
          "transactionHash": "0xbd6831bfa5c52aa2cda93773814a5d23aca925fa90b03f6ddf71c30e1d5b973a",
          "transactionIndex": "0x1",
          "logIndex": "0x0",
          "removed": false
        },
        {
          "address": "0x54ec23cbce1a9d33f05c4d3d79ec28aff3c8ce8d",
          "topics": [
            "0x1232eea6850ae2b6d6de238400c1b5b9ad6f319bec57784ac3d952e510781253"
          ],
          "data": "0x5893afe12b44b83642f323c50a00281172b1b9a37169b61fb28807883f13522e000000000000000000000000000000000000000000000000000000000000006000000000000000000000000000000000000000000000000000000000000000a00000000000000000000000000000000000000000000000000000000000000001fec2eb7d11705720b7dc513aed5232a2a4cfa7981749f1656be91e3226c99a190000000000000000000000000000000000000000000000000000000000000001bf1e21c99a36e5265342b45b3748ba4486378a734a8650d0e72ece0d433d3497",
          "blockHash": "0x02660eea71fa65a9c2bc310be548d26545a42a5b00e940e63e50ee5310941b78",
          "blockNumber": "0x1f2eacb",
          "blockTimestamp": "0x69515877",
          "transactionHash": "0xbd6831bfa5c52aa2cda93773814a5d23aca925fa90b03f6ddf71c30e1d5b973a",
          "transactionIndex": "0x1",
          "logIndex": "0x1",
          "removed": false
        }
      ],
      "logsBloom": "0x00000000000000000000000000000000000000000400000000000000000000040000000000000000000000000000000000000000000000000000000000000000000000000000000000000000000000000000000000000000000000000000000000000000000000000040000000000000000000000000000000000000000000000000000000000000000100004000000000000000000000000000000000000040000000000000000000000000000000000000000000000000000000000040000000000000000000000000000000000000000000000000000000000008000000000000000000000000000000000000010000000000000000000000000000000000",
      "type": "0x2",
      "transactionHash": "0xbd6831bfa5c52aa2cda93773814a5d23aca925fa90b03f6ddf71c30e1d5b973a",
      "transactionIndex": "0x1",
      "blockHash": "0x02660eea71fa65a9c2bc310be548d26545a42a5b00e940e63e50ee5310941b78",
      "blockNumber": "0x1f2eacb",
      "gasUsed": "0x219a76ca",
      "effectiveGasPrice": "0x132b3a0",
      "from": "0x15398447bff13c17a8b41b941730291013703530",
      "to": "0x54ec23cbce1a9d33f05c4d3d79ec28aff3c8ce8d",
      "contractAddress": null,
      "l1Fee": "0x168c0e707f3fab",
      "l1FeeScalar": "0.01",
      "l1GasPrice": "0x95687187e",
      "l1GasUsed": "0x15bc",
      "tokenRatio": "0xb1c"
    },
    {
      "status": "0x1",
      "cumulativeGasUsed": "0x302c885d",
      "logs": [
        {
          "address": "0x54ec23cbce1a9d33f05c4d3d79ec28aff3c8ce8d",
          "topics": [
            "0xcb85226de2042775fc20e22e066e05653c16eb1e57d21eae020ac6d9f9a54804"
          ],
          "data": "0xc6a7e9c4345acce91a14161c83957f54e4ea0fb5d992aab455af090224c87e6900000000000000000000000000000000000000000000000000000000000000400000000000000000000000000000000000000000000000000000000000000000",
          "blockHash": "0x3c2278d88be24f94c6f31c652ed9181f4bfa7e7d491d45820f55bd866b84ce73",
          "blockNumber": "0x1f2eace",
          "blockTimestamp": "0x6951587d",
          "transactionHash": "0x332fabb2e79fae2295f52f9a8cb8b1fdaa33f906d9cb912b694ab22fbb50756e",
          "transactionIndex": "0x1",
          "logIndex": "0x0",
          "removed": false
        },
        {
          "address": "0x54ec23cbce1a9d33f05c4d3d79ec28aff3c8ce8d",
          "topics": [
            "0xcb85226de2042775fc20e22e066e05653c16eb1e57d21eae020ac6d9f9a54804"
          ],
          "data": "0xa4201f02e5c941b1bcab9876cba73ce219f6af8b6a89e3f430aa0d5868b3e43b00000000000000000000000000000000000000000000000000000000000000400000000000000000000000000000000000000000000000000000000000000000",
          "blockHash": "0x3c2278d88be24f94c6f31c652ed9181f4bfa7e7d491d45820f55bd866b84ce73",
          "blockNumber": "0x1f2eace",
          "blockTimestamp": "0x6951587d",
          "transactionHash": "0x332fabb2e79fae2295f52f9a8cb8b1fdaa33f906d9cb912b694ab22fbb50756e",
          "transactionIndex": "0x1",
          "logIndex": "0x1",
          "removed": false
        },
        {
          "address": "0x54ec23cbce1a9d33f05c4d3d79ec28aff3c8ce8d",
          "topics": [
            "0xf291393d9fa3dd070bf018bfb5ac4e243996f745accfca5607aa2bb0ce61d913"
          ],
          "data": "0xf0a3d6a78a0b9ceeac025ffe83bfe347f4b6875f3415ef8d546cd6c3a5775fe2ec7e4e6ad91bd2e31a053b2e46f92e838b84b238f833212fa2a383e861479a10e55b9bd437084abbce9d6be2b64ee0321ab2c7ff88ba6778d6251a3a5ecdfb08",
          "blockHash": "0x3c2278d88be24f94c6f31c652ed9181f4bfa7e7d491d45820f55bd866b84ce73",
          "blockNumber": "0x1f2eace",
          "blockTimestamp": "0x6951587d",
          "transactionHash": "0x332fabb2e79fae2295f52f9a8cb8b1fdaa33f906d9cb912b694ab22fbb50756e",
          "transactionIndex": "0x1",
          "logIndex": "0x2",
          "removed": false
        }
      ],
      "logsBloom": "0x00000000000000000000000000000000000000000400000000000000000000000000000000000000000000100000000000000000000000000000000000000000000000000000000000000000000000000000100000000000000000000000000000000000000000000040000000000000000000000000000000000000000000000000000000000000000000004000000000000000000000000000000000000040000000000000000000000000000000000000000000000000000000000040000000000200000000000000000000000000000000000000000000000000000000000000000000000000000000000000010000000000000000000000000000000000",
      "type": "0x2",
      "transactionHash": "0x332fabb2e79fae2295f52f9a8cb8b1fdaa33f906d9cb912b694ab22fbb50756e",
      "transactionIndex": "0x1",
      "blockHash": "0x3c2278d88be24f94c6f31c652ed9181f4bfa7e7d491d45820f55bd866b84ce73",
      "blockNumber": "0x1f2eace",
      "gasUsed": "0x302bb070",
      "effectiveGasPrice": "0x132b3a0",
      "from": "0x15398447bff13c17a8b41b941730291013703530",
      "to": "0x54ec23cbce1a9d33f05c4d3d79ec28aff3c8ce8d",
      "contractAddress": null,
      "l1Fee": "0x1d46cebac61cbc",
      "l1FeeScalar": "0.01",
      "l1GasPrice": "0x97c64c174",
      "l1GasUsed": "0x1bc8",
      "tokenRatio": "0xb1c"
    }
  ],
  "libraries": [],
  "pending": [],
  "returns": {},
  "timestamp": 1766938750529,
  "chain": 5003,
  "commit": "77ca7a0"
}